:100000000C9464000C948C000C948C000C947D0176
:100010000C947D010C947D010C948C000C948C004C
:100020000C948C000C948C000C948C000C948C0020
:100030000C948C000C948C000C948C000C948C0010
:100040000C943A050C948C000C945D040C948F0471
:100050000C948C000C948C000C948C000C948C00F0
:100060000C948C000C948C0000000008000201002D
:100070000003040700000000000000000102040863
:100080001020408001020408102001020408102002
:10009000040404040404040402020202020203032E
:1000A00003030303000000002300260029000000D2
:1000B0000000250028002B0000000000240027007D
:1000C0002A00B800BF04BF0011241FBECFEFD8E044
:1000D000DEBFCDBF11E0A0E0B1E0E8E3FCE002C08C
:1000E00005900D92A032B107D9F722E0A0E2B1E06D
:1000F00001C01D92A932B207E1F710E0C6ECD0E0D2
:1001000004C02297FE010E940B06C23CD107C9F72A
:100110000E9403050C940F060C94000026E040E8B2
:1001200055E260E070E083E891E00E94FB0360E04C
:100130008DE00E94A90260E08CE00E94A90260E0CC
:100140008BE00E94A90260E08AE00E94A90260E0C0
:1001500089E00E94A90261E087E00E94A90261E0B3
:1001600086E00E94A90261E085E00C94A90208954E
:1001700020E043E062E080E291E00C94500280E2F3
:1001800091E00C94F70120918101309182012817B0
:100190003907B9F490913F0180914001981789F097
:1001A000E0913F01F0E0EF5BFE4F808120913F0145
:1001B00030E02F5F3F4F2F73332720933F0190E0B4
:1001C00008958FEF9FEF08951F93CF93DF93DC0186
:1001D0005C968D919C915D97009749F481E090E049
:1001E00013969C938E93129780E090E03BC05196BB
:1001F000ED91FC91529750962C915097322F30955B
:100200001FB75E964C915E9741FB772770F941FDD1
:100210006095F8944081772311F0422B01C043236D
:100220004083EC012197F1F748E0508160FF02C064
:10023000522B01C053235083EC012197F1F76695AF
:10024000415099F78081772311F0832301C0822BDD
:1002500080831FBF5C968D919C915D970197F1F70C
:1002600081E090E0DF91CF911F9108950895209152
:100270008101309182012817390771F490913F0173
:1002800080914001981741F0E0913F01F0E0EF5B71
:10029000FE4F808190E008958FEF9FEF08952091A9
:1002A0008101309182012817390771F48091400152
:1002B00020913F0190E0805C9F4F821B910960E498
:1002C00070E00E94BF05089580E090E00895E091FD
:1002D0008101F0918201E817F90769F4A389B489D3
:1002E0009C918589809589238C931092820110922C
:1002F000810181E0089580E008951F920F920FB66A
:100300000F9211242F933F934F935F936F937F939B
:100310008F939F93AF93BF93EF93FF93E0918101EE
:10032000F0918201309709F451C0868DA685B7857A
:10033000958581FF04C08C91892329F447C08C9155
:10034000892309F043C0A389B4899C91858980954C
:1003500089238C93868997890197F1F7208D318DB8
:10036000A685B785758558E040E0C9010197F1F78A
:10037000842F90E095958795482F6C91672309F01D
:100380004068515091F7868D81FD409580914001E4
:1003900090E001968F73992720913F01281749F02B
:1003A000A0914001B0E0AF5BBE4F4C938093400101
:1003B00003C0868D8160868F828D938D0197F1F7C2
:1003C000A389B4898C919589892B8C93FF91EF91A6
:1003D000BF91AF919F918F917F916F915F914F915D
:1003E0003F912F910F900FBE0F901F90189524E012
:1003F00031E0FC01318320830C9467011F93CF937C
:10040000DF93EC01162F6E8D6695617081E0682791
:10041000812F0E94E20261E0812F0E94A902812FB8
:1004200090E0FC01E458FF4FE491E88BFC01E057B9
:10043000FF4FE491F0E0EE0FFF1FE255FF4F859173
:1004400094919A8B898BDF91CF911F9108951F937F
:10045000CF93DF93EC01162F60E0812F0E94A90259
:100460008E8D81FD04C061E0812F0E94E2021C8715
:10047000812F90E0FC01E458FF4FE491ED87FC01EF
:10048000E057FF4FE491F0E0EE0FFF1FEC55FF4FF8
:10049000859194919F878E87DF91CF911F910895C9
:1004A000FF920F931F93CF93DF93EC01F62E522F01
:1004B0001B821A8208EE13E020E030E00C831D83DB
:1004C0002E833F8384E091E0998388831F8A1E8A6C
:1004D000198E188E1B8E1A8E1D8E1C8E8E8D8E7F01
:1004E00050FB81F98E8F642FCE010E94FE016F2D8B
:1004F000CE01DF91CF911F910F91FF900C942702B5
:10050000833081F028F4813099F08230A1F0089591
:100510008730A9F08830B9F08430D1F48091800020
:100520008F7D03C0809180008F7780938000089535
:1005300084B58F7702C084B58F7D84BD0895809186
:10054000B0008F7703C08091B0008F7D8093B000A2
:100550000895CF93DF9390E0FC01E458FF4F24917E
:10056000FC01E057FF4F8491882349F190E0880F08
:10057000991FFC01E854FF4FA591B49182559F4FFC
:10058000FC01C591D4919FB7611108C0F8948C917A
:10059000209582238C93888182230AC0623051F493
:1005A000F8948C91322F309583238C938881822B01
:1005B000888304C0F8948C91822B8C939FBFDF9129
:1005C000CF9108950F931F93CF93DF931F92CDB7D1
:1005D000DEB7282F30E0F901E859FF4F8491F90187
:1005E000E458FF4F1491F901E057FF4F04910023A5
:1005F000C9F0882321F069830E9480026981E02F7D
:10060000F0E0EE0FFF1FE255FF4FA591B4919FB7A9
:10061000F8948C91611103C01095812301C0812B46
:100620008C939FBF0F90DF91CF911F910F910895F1
:10063000FC01818D228D90E0805C9F4F821B91098F
:100640008F7399270895FC01918D828D981731F051
:10065000828DE80FF11D858D90E008958FEF9FEF5B
:100660000895FC01918D828D981761F0828DDF01D4
:10067000A80FB11D5D968C91928D9F5F9F73928F95
:1006800090E008958FEF9FEF089585EB94E0892B1C
:1006900049F080E090E0892B29F00E94B504811197
:1006A0000C9400000895FC01848DDF01A80FB11D9A
:1006B000A35ABF4F2C91848D90E001968F73992798
:1006C000848FA689B7892C93A089B1898C91806485
:1006D0008C93938D848D981306C00288F389E02D46
:1006E00080818F7D80830895CF93DF93EC01888D87
:1006F0008823C9F0EA89FB89808185FD05C0A88926
:10070000B9898C9186FD0FC00FB607FCF5CF8081AB
:1007100085FFF2CFA889B9898C9185FFEDCFCE01F5
:100720000E945303E7CFDF91CF910895CF92DF92DC
:10073000FF920F931F93CF93DF931F92CDB7DEB736
:100740006C0181E0D60158968C9358975B969C91EA
:100750005B975C968C915C97981307C05096ED91CF
:10076000FC915197808185FD2EC0F601038D10E02C
:100770000F5F1F4F0F731127F02EF601848DF812B3
:1007800011C00FB607FCF9CFD6015096ED91FC9140
:100790005197808185FFF1CFC60169830E94530381
:1007A0006981EBCF838DE80FF11DE35AFF4F608322
:1007B000D6015B960C935B975296ED91FC91539703
:1007C000808180620CC0D6015696ED91FC915797BE
:1007D00060835096ED91FC91519780818064808375
:1007E00081E090E00F90DF91CF911F910F91FF90EA
:1007F000DF90CF900895BF92CF92DF92EF92FF9259
:10080000CF93DF93EC016A017B01B22EE889F9896D
:1008100082E08083411581EE580761057105A1F0E2
:1008200060E079E08DE390E0A70196010E94D30596
:10083000215031094109510956954795379527951A
:10084000211580E1380798F0E889F989108260E87D
:1008500074E88EE190E0A70196010E94D305215033
:100860003109410951095695479537952795EC85EA
:10087000FD853083EE85FF852083188EEC89FD8908
:10088000B082EA89FB89808180618083EA89FB8963
:10089000808188608083EA89FB8980818068808389
:1008A000EA89FB8980818F7D8083DF91CF91FF90E2
:1008B000EF90DF90CF90BF9008951F920F920FB6E8
:1008C0000F9211242F938F939F93EF93FF93E091B7
:1008D0009301F09194018081E0919901F0919A0146
:1008E00082FD12C0908180919C018F5F8F73209157
:1008F0009D01821751F0E0919C01F0E0ED57FE4F11
:10090000958F80939C0101C08081FF91EF919F9111
:100910008F912F910F900FBE0F901F9018951F92DF
:100920000F920FB60F9211242F933F934F935F9323
:100930006F937F938F939F93AF93BF93EF93FF93A7
:1009400083E891E00E945303FF91EF91BF91AF9133
:100950009F918F917F916F915F914F913F912F91D7
:100960000F900FBE0F901F90189583E891E00E94A2
:10097000180321E0892B09F420E0822F08951092BA
:1009800086011092850188EE93E0A0E0B0E08093AC
:10099000870190938801A0938901B0938A0184E133
:1009A00091E0909384018093830185EC90E0909393
:1009B000900180938F0184EC90E09093920180935A
:1009C000910180EC90E0909394018093930181ECED
:1009D00090E0909396018093950182EC90E0909343
:1009E00098018093970186EC90E090939A01809310
:1009F000990110929C0110929D0110929E011092FB
:100A00009F01089508950E9484050E9402050E9496
:100A10008E00C5E4D3E00E94B7002097E1F30E9466
:100A20004503F9CFCF92DF92EF92FF920F931F937E
:100A3000CF93DF937C016A01EB0100E010E00C151D
:100A40001D0571F06991D701ED91FC910190F08144
:100A5000E02DC7010995892B19F00F5F1F4FEFCFCC
:100A6000C801DF91CF911F910F91FF90EF90DF9020
:100A7000CF9008951F920F920FB60F9211242F93CB
:100A80003F938F939F93AF93BF9380912102909157
:100A90002202A0912302B09124023091200223E08F
:100AA000230F2D3720F40196A11DB11D05C026E8A6
:100AB000230F0296A11DB11D2093200280932102D5
:100AC00090932202A0932302B093240280912502E6
:100AD00090912602A0912702B09128020196A11DB3
:100AE000B11D8093250290932602A0932702B09314
:100AF0002802BF91AF919F918F913F912F910F90BD
:100B00000FBE0F901F901895789484B5826084BDB5
:100B100084B5816084BD85B5826085BD85B5816001
:100B200085BDEEE6F0E0808181608083E1E8F0E061
:100B30001082808182608083808181608083E0E890
:100B4000F0E0808181608083E1EBF0E0808184606F
:100B50008083E0EBF0E0808181608083EAE7F0E071
:100B600080818460808380818260808380818160D5
:100B700080838081806880831092C100089597FBF4
:100B8000072E16F4009407D077FD09D00E94F505D2
:100B900007FC05D03EF4909581959F4F0895709580
:100BA00061957F4F0895A1E21A2EAA1BBB1BFD0180
:100BB0000DC0AA1FBB1FEE1FFF1FA217B307E4073C
:100BC000F50720F0A21BB30BE40BF50B661F771F94
:100BD000881F991F1A9469F7609570958095909574
:100BE0009B01AC01BD01CF010895AA1BBB1B51E1C4
:100BF00007C0AA1FBB1FA617B70710F0A61BB70B8D
:100C0000881F991F5A95A9F780959095BC01CD0131
:100C10000895EE0FFF1F0590F491E02D099410E068
:100C2000C6ECD0E004C0FE010E940B062296C83C30
:080C3000D107C9F7F894FFCFCA
:100C380000000000E40012054F01C300370136012F
:100C48000000000096031205180331032303740300
:107E0000112484B714BE81FFF0D085E080938100F7
:107E100082E08093C00088E18093C10086E0809377
:107E2000C20080E18093C4008EE0C9D0259A86E02C
:107E300020E33CEF91E0309385002093840096BBD3
:107E4000B09BFECF1D9AA8958150A9F7CC24DD24C4
:107E500088248394B5E0AB2EA1E19A2EF3E0BF2EE7
:107E6000A2D0813461F49FD0082FAFD0023811F036
:107E7000013811F484E001C083E08DD089C08234E0
:107E800011F484E103C0853419F485E0A6D080C0E4
:107E9000853579F488D0E82EFF2485D0082F10E0AE
:107EA000102F00270E291F29000F111F8ED06801E7
:107EB0006FC0863521F484E090D080E0DECF843638
:107EC00009F040C070D06FD0082F6DD080E0C81688
:107ED00080E7D80618F4F601B7BEE895C0E0D1E017
:107EE00062D089930C17E1F7F0E0CF16F0E7DF06D8
:107EF00018F0F601B7BEE89568D007B600FCFDCFD4
:107F0000A601A0E0B1E02C9130E011968C91119780
:107F100090E0982F8827822B932B1296FA010C0160
:107F200087BEE89511244E5F5F4FF1E0A038BF0790
:107F300051F7F601A7BEE89507B600FCFDCF97BE46
:107F4000E89526C08437B1F42ED02DD0F82E2BD052
:107F50003CD0F601EF2C8F010F5F1F4F84911BD097
:107F6000EA94F801C1F70894C11CD11CFA94CF0C13
:107F7000D11C0EC0853739F428D08EE10CD085E9AC
:107F80000AD08FE07ACF813511F488E018D01DD067
:107F900080E101D065CF982F8091C00085FFFCCF94
:107FA0009093C60008958091C00087FFFCCF809118
:107FB000C00084FD01C0A8958091C6000895E0E648
:107FC000F0E098E1908380830895EDDF803219F02E
:107FD00088E0F5DFFFCF84E1DECF1F93182FE3DFCA
:107FE0001150E9F7F2DF1F91089580E0E8DFEE27F6
:047FF000FF270994CA
:027FFE00040479
:0400000300007E007B
:00000001FF